{"abi":[{"type":"function","name":"sendTokens","inputs":[{"name":"token","type":"address","internalType":"address"},{"name":"recipients","type":"address[]","internalType":"address[]"},{"name":"amounts","type":"uint256[]","internalType":"uint256[]"}],"outputs":[],"stateMutability":"nonpayable"}],"bytecode":{"object":"0x6080604052348015600e575f5ffd5b506105858061001c5f395ff3fe608060405234801561000f575f5ffd5b5060043610610029575f3560e01c8063e83f967b1461002d575b5f5ffd5b610047600480360381019061004291906102ca565b610049565b005b818190508484905014610091576040517f08c379a0000000000000000000000000000000000000000000000000000000008152600401610088906103b5565b60405180910390fd5b5f5f90505b848490508110156101aa578573ffffffffffffffffffffffffffffffffffffffff166323b872dd338787858181106100d1576100d06103d3565b5b90506020020160208101906100e69190610400565b8686868181106100f9576100f86103d3565b5b905060200201356040518463ffffffff1660e01b815260040161011e93929190610452565b6020604051808303815f875af115801561013a573d5f5f3e3d5ffd5b505050506040513d601f19601f8201168201806040525081019061015e91906104bc565b61019d576040517f08c379a000000000000000000000000000000000000000000000000000000000815260040161019490610531565b60405180910390fd5b8080600101915050610096565b505050505050565b5f5ffd5b5f5ffd5b5f73ffffffffffffffffffffffffffffffffffffffff82169050919050565b5f6101e3826101ba565b9050919050565b6101f3816101d9565b81146101fd575f5ffd5b50565b5f8135905061020e816101ea565b92915050565b5f5ffd5b5f5ffd5b5f5ffd5b5f5f83601f84011261023557610234610214565b5b8235905067ffffffffffffffff81111561025257610251610218565b5b60208301915083602082028301111561026e5761026d61021c565b5b9250929050565b5f5f83601f84011261028a57610289610214565b5b8235905067ffffffffffffffff8111156102a7576102a6610218565b5b6020830191508360208202830111156102c3576102c261021c565b5b9250929050565b5f5f5f5f5f606086880312156102e3576102e26101b2565b5b5f6102f088828901610200565b955050602086013567ffffffffffffffff811115610311576103106101b6565b5b61031d88828901610220565b9450945050604086013567ffffffffffffffff8111156103405761033f6101b6565b5b61034c88828901610275565b92509250509295509295909350565b5f82825260208201905092915050565b7f4c656e677468206d69736d6174636800000000000000000000000000000000005f82015250565b5f61039f600f8361035b565b91506103aa8261036b565b602082019050919050565b5f6020820190508181035f8301526103cc81610393565b9050919050565b7f4e487b71000000000000000000000000000000000000000000000000000000005f52603260045260245ffd5b5f60208284031215610415576104146101b2565b5b5f61042284828501610200565b91505092915050565b610434816101d9565b82525050565b5f819050919050565b61044c8161043a565b82525050565b5f6060820190506104655f83018661042b565b610472602083018561042b565b61047f6040830184610443565b949350505050565b5f8115159050919050565b61049b81610487565b81146104a5575f5ffd5b50565b5f815190506104b681610492565b92915050565b5f602082840312156104d1576104d06101b2565b5b5f6104de848285016104a8565b91505092915050565b7f5472616e73666572206661696c656400000000000000000000000000000000005f82015250565b5f61051b600f8361035b565b9150610526826104e7565b602082019050919050565b5f6020820190508181035f8301526105488161050f565b905091905056fea26469706673582212206ea6d62b17babb8a088b3ce24d328982600865424be681c89c77055525705b4f64736f6c634300081e0033","linkReferences":{}},"methodIdentifiers":{"sendTokens(address,address[],uint256[])":"e83f967b"},"id":0}